{
  "transactions": [
    {
      "hash": "0xfd01ccce4c4c3662c35dd977de957be9f51f0363f2830d293f0edf5da8611295",
      "transactionType": "CALL",
      "contractName": null,
      "contractAddress": "0xaf6d8b4577b61a3f389f96d9932156ea9632ccc8",
      "function": "createVault()",
      "arguments": [],
      "transaction": {
        "from": "0x000ef5f21dc574226a06c76aae7060642a30eb74",
        "to": "0xaf6d8b4577b61a3f389f96d9932156ea9632ccc8",
        "gas": "0x513a1",
        "value": "0x0",
        "input": "0x5d12928b",
        "nonce": "0x86",
        "chainId": "0xaa36a7"
      },
      "additionalContracts": [],
      "isFixedGasLimit": false
    },
    {
      "hash": "0x075dccd0ba68b888892568865ffff100f739afd2f837bc25fd7dd0e20f2b7e27",
      "transactionType": "CALL",
      "contractName": null,
      "contractAddress": "0x75ca396896cbf71fda3f9e90d284b08de2ef5e15",
      "function": "registerNewSpokeChain(uint256,uint256)",
      "arguments": [
        "1",
        "59141"
      ],
      "transaction": {
        "from": "0x000ef5f21dc574226a06c76aae7060642a30eb74",
        "to": "0x75ca396896cbf71fda3f9e90d284b08de2ef5e15",
        "gas": "0x5a4a5",
        "value": "0x3782dace9d90000",
        "input": "0x17b912080000000000000000000000000000000000000000000000000000000000000001000000000000000000000000000000000000000000000000000000000000e705",
        "nonce": "0x87",
        "chainId": "0xaa36a7"
      },
      "additionalContracts": [],
      "isFixedGasLimit": false
    }
  ],
  "receipts": [
    {
      "status": "0x1",
      "cumulativeGasUsed": "0x1b296eb",
      "logs": [
        {
          "address": "0xaf6d8b4577b61a3f389f96d9932156ea9632ccc8",
          "topics": [
            "0xddf252ad1be2c89b69c2b068fc378daa952ba7f163c4a11628f55a4df523b3ef",
            "0x0000000000000000000000000000000000000000000000000000000000000000",
            "0x000000000000000000000000af6d8b4577b61a3f389f96d9932156ea9632ccc8",
            "0x0000000000000000000000000000000000000000000000000000000000000001"
          ],
          "data": "0x",
          "blockHash": "0x686e8e4a4ab3617effd9026234b4194e5482be7739ae26a0529f568c42b36c66",
          "blockNumber": "0x66c5f3",
          "transactionHash": "0xfd01ccce4c4c3662c35dd977de957be9f51f0363f2830d293f0edf5da8611295",
          "transactionIndex": "0x104",
          "logIndex": "0x1ba",
          "removed": false
        },
        {
          "address": "0xc690f4f8c07c25c8cd60455a5af4b48af22ecdfa",
          "topics": [
            "0x07fba7bba1191da7ee1155dcfa0030701c9c9a9cc34a93b991fc6fd0c9268d8f",
            "0x00000000000000000000000011d1e6fab5be8365a9e2b09b7fbce17eb2f85425",
            "0x000000000000000000000000af6d8b4577b61a3f389f96d9932156ea9632ccc8",
            "0x0000000000000000000000000000000000000000000000000000000000000001"
          ],
          "data": "0x00000000000000000000000075ca396896cbf71fda3f9e90d284b08de2ef5e150000000000000000000000000000000000000000000000000000000000aa36a70000000000000000000000000000000000000000000000000000000000000000",
          "blockHash": "0x686e8e4a4ab3617effd9026234b4194e5482be7739ae26a0529f568c42b36c66",
          "blockNumber": "0x66c5f3",
          "transactionHash": "0xfd01ccce4c4c3662c35dd977de957be9f51f0363f2830d293f0edf5da8611295",
          "transactionIndex": "0x104",
          "logIndex": "0x1bb",
          "removed": false
        },
        {
          "address": "0x75ca396896cbf71fda3f9e90d284b08de2ef5e15",
          "topics": [
            "0x3cd5ec01b1ae7cfec6ca1863e2cd6aa25d6d1702825803ff2b7cc95010fffdc2",
            "0x000000000000000000000000af6d8b4577b61a3f389f96d9932156ea9632ccc8",
            "0x000000000000000000000000bc92755e56894cc1fb2054a56e5939bad1cd3541"
          ],
          "data": "0x",
          "blockHash": "0x686e8e4a4ab3617effd9026234b4194e5482be7739ae26a0529f568c42b36c66",
          "blockNumber": "0x66c5f3",
          "transactionHash": "0xfd01ccce4c4c3662c35dd977de957be9f51f0363f2830d293f0edf5da8611295",
          "transactionIndex": "0x104",
          "logIndex": "0x1bc",
          "removed": false
        },
        {
          "address": "0xaf6d8b4577b61a3f389f96d9932156ea9632ccc8",
          "topics": [
            "0xddf252ad1be2c89b69c2b068fc378daa952ba7f163c4a11628f55a4df523b3ef",
            "0x000000000000000000000000af6d8b4577b61a3f389f96d9932156ea9632ccc8",
            "0x000000000000000000000000000ef5f21dc574226a06c76aae7060642a30eb74",
            "0x0000000000000000000000000000000000000000000000000000000000000001"
          ],
          "data": "0x",
          "blockHash": "0x686e8e4a4ab3617effd9026234b4194e5482be7739ae26a0529f568c42b36c66",
          "blockNumber": "0x66c5f3",
          "transactionHash": "0xfd01ccce4c4c3662c35dd977de957be9f51f0363f2830d293f0edf5da8611295",
          "transactionIndex": "0x104",
          "logIndex": "0x1bd",
          "removed": false
        },
        {
          "address": "0xaf6d8b4577b61a3f389f96d9932156ea9632ccc8",
          "topics": [
            "0x019b61d9140f8784f4eed1e66569335630452af2d974ceb13d3e706c07867296",
            "0x000000000000000000000000000ef5f21dc574226a06c76aae7060642a30eb74",
            "0x0000000000000000000000000000000000000000000000000000000000000001",
            "0x00000000000000000000000075ca396896cbf71fda3f9e90d284b08de2ef5e15"
          ],
          "data": "0x",
          "blockHash": "0x686e8e4a4ab3617effd9026234b4194e5482be7739ae26a0529f568c42b36c66",
          "blockNumber": "0x66c5f3",
          "transactionHash": "0xfd01ccce4c4c3662c35dd977de957be9f51f0363f2830d293f0edf5da8611295",
          "transactionIndex": "0x104",
          "logIndex": "0x1be",
          "removed": false
        }
      ],
      "logsBloom": "0x000000000000001000820000000000000000000000000000000000000000000000000000000200000000000000000000000200000000000000000010000400024000040200001000000000080000000000000000400400000000000000000000200000000200000000000004000008000000000000000000000000100000000010000000000002004800000000200000000000000000000000000000000020000000000000000000000000080000000000000000000000000000000000000000000000020000000000000000000000800000000000008800040000000480e0000100001000000000000000000000000000000000000000000000002000000008",
      "type": "0x2",
      "transactionHash": "0xfd01ccce4c4c3662c35dd977de957be9f51f0363f2830d293f0edf5da8611295",
      "transactionIndex": "0x104",
      "blockHash": "0x686e8e4a4ab3617effd9026234b4194e5482be7739ae26a0529f568c42b36c66",
      "blockNumber": "0x66c5f3",
      "gasUsed": "0x378af",
      "effectiveGasPrice": "0x1e0bc5667",
      "from": "0x000ef5f21dc574226a06c76aae7060642a30eb74",
      "to": "0xaf6d8b4577b61a3f389f96d9932156ea9632ccc8",
      "contractAddress": null
    },
    {
      "status": "0x1",
      "cumulativeGasUsed": "0x1b6acd1",
      "logs": [
        {
          "address": "0xcc1ae8cf5d3904cef3360a9532b477529b177cce",
          "topics": [
            "0x61ed099e74a97a1d7f8bb0952a88ca8b7b8ebd00c126ea04671f92a81213318a"
          ],
          "data": "0x000000000000000000000000718b92b5cb0a5552039b593faf724d182a881eda00000000000000000000000000000000000000000000000000004e393421798a",
          "blockHash": "0x686e8e4a4ab3617effd9026234b4194e5482be7739ae26a0529f568c42b36c66",
          "blockNumber": "0x66c5f3",
          "transactionHash": "0x075dccd0ba68b888892568865ffff100f739afd2f837bc25fd7dd0e20f2b7e27",
          "transactionIndex": "0x105",
          "logIndex": "0x1bf",
          "removed": false
        },
        {
          "address": "0xcc1ae8cf5d3904cef3360a9532b477529b177cce",
          "topics": [
            "0x07ea52d82345d6e838192107d8fd7123d9c2ec8e916cd0aad13fd2b60db24644"
          ],
          "data": "0x000000000000000000000000000000000000000000000000000000000000006000000000000000000000000000000000000000000000000000000000000000a000000000000000000000000000000000000000000000000000000000000000c000000000000000000000000000000000000000000000000000000000000000010000000000000000000000008eebf8b423b73bfca51a1db4b7354aa0bfca919300000000000000000000000000000000000000000000000000000000000000000000000000000000000000000000000000000000000000000000000000000001000000000000000000000000000000000000000000000000000003e9429b4613",
          "blockHash": "0x686e8e4a4ab3617effd9026234b4194e5482be7739ae26a0529f568c42b36c66",
          "blockNumber": "0x66c5f3",
          "transactionHash": "0x075dccd0ba68b888892568865ffff100f739afd2f837bc25fd7dd0e20f2b7e27",
          "transactionIndex": "0x105",
          "logIndex": "0x1c0",
          "removed": false
        },
        {
          "address": "0x6edce65403992e310a62460808c4b910d972f10f",
          "topics": [
            "0x1ab700d4ced0c005b164c0f789fd09fcbb0156d4c2041b8a3bfbcd961cd1567f"
          ],
          "data": "0x00000000000000000000000000000000000000000000000000000000000000600000000000000000000000000000000000000000000000000000000000000180000000000000000000000000cc1ae8cf5d3904cef3360a9532b477529b177cce00000000000000000000000000000000000000000000000000000000000000f101000000000000000200009ce1000000000000000000000000af6d8b4577b61a3f389f96d9932156ea9632ccc800009d5f0000000000000000000000000944830916cecb637613c9fd0e8f6c21ccffb4ef5701a52102b9297189c3bfd22452b22f2739dfeb967223575454ee6e030fe8720000000000000000000000009c080703256bdf9ea1b485ae72f13e31f74c558b000000000000000000000000000000000000000000000000000000000000e705000000000000000000000000af6d8b4577b61a3f389f96d9932156ea9632ccc800000000000000000000000000000000000000000000000000000000000000010000000000000000000000000000000000000000000000000000000000000000000000000000000000000000000016000301001101000000000000000000000000000f424000000000000000000000",
          "blockHash": "0x686e8e4a4ab3617effd9026234b4194e5482be7739ae26a0529f568c42b36c66",
          "blockNumber": "0x66c5f3",
          "transactionHash": "0x075dccd0ba68b888892568865ffff100f739afd2f837bc25fd7dd0e20f2b7e27",
          "transactionIndex": "0x105",
          "logIndex": "0x1c1",
          "removed": false
        },
        {
          "address": "0x75ca396896cbf71fda3f9e90d284b08de2ef5e15",
          "topics": [
            "0x7e964ef64a625e3330d1f3c62e721a991668d33804582bb66393fb252fdf25fc",
            "0x000000000000000000000000c1255d328c5ef75605b7742523d475c916b9ccc7",
            "0x000000000000000000000000000000000000000000000000000000000000e705"
          ],
          "data": "0x",
          "blockHash": "0x686e8e4a4ab3617effd9026234b4194e5482be7739ae26a0529f568c42b36c66",
          "blockNumber": "0x66c5f3",
          "transactionHash": "0x075dccd0ba68b888892568865ffff100f739afd2f837bc25fd7dd0e20f2b7e27",
          "transactionIndex": "0x105",
          "logIndex": "0x1c2",
          "removed": false
        }
      ],
      "logsBloom": "0x00000000000200002000000000000000000000000000000000002000000100000000000000000000200000000001000000000000000000000000000000000000000000000000000000000000000000000000000000000000000000000000000000000000000000008a00000000000000000000400000000000000000000000000000000000000020000000080000000000000000000000000000000000002000000000008000000000100000000000000000040000400000000440000000000000001000000000000000000000000080000000080000000000000000800000000000040000000000000000000000002000000000000000000000000000000028",
      "type": "0x2",
      "transactionHash": "0x075dccd0ba68b888892568865ffff100f739afd2f837bc25fd7dd0e20f2b7e27",
      "transactionIndex": "0x105",
      "blockHash": "0x686e8e4a4ab3617effd9026234b4194e5482be7739ae26a0529f568c42b36c66",
      "blockNumber": "0x66c5f3",
      "gasUsed": "0x415e6",
      "effectiveGasPrice": "0x1e0bc5667",
      "from": "0x000ef5f21dc574226a06c76aae7060642a30eb74",
      "to": "0x75ca396896cbf71fda3f9e90d284b08de2ef5e15",
      "contractAddress": null
    }
  ],
  "libraries": [],
  "pending": [],
  "returns": {},
  "timestamp": 1726953415,
  "chain": 11155111,
  "commit": "4b648ea"
}