{
  "transactions": [
    {
      "hash": "0xdb5aa8675fc85157340156d14cc8e48c94ccd1484d3e98669ad2c30d163fe072",
      "transactionType": "CALL",
      "contractName": null,
      "contractAddress": "0xaf6d8b4577b61a3f389f96d9932156ea9632ccc8",
      "function": "createVault()",
      "arguments": [],
      "transaction": {
        "from": "0x000ef5f21dc574226a06c76aae7060642a30eb74",
        "to": "0xaf6d8b4577b61a3f389f96d9932156ea9632ccc8",
        "gas": "0x5d702",
        "value": "0x0",
        "input": "0x5d12928b",
        "nonce": "0x74",
        "chainId": "0xaa36a7"
      },
      "additionalContracts": [],
      "isFixedGasLimit": false
    },
    {
      "hash": "0xbcaf36343c920e5b361554cc3d9b861cda58717b9f2e12cafaf7afab17697ae8",
      "transactionType": "CALL",
      "contractName": null,
      "contractAddress": "0x26f89bf53d33cc44e33a1463a79bbb9c26458584",
      "function": "registerNewSpokeChain(uint256,uint256)",
      "arguments": [
        "0",
        "59141"
      ],
      "transaction": {
        "from": "0x000ef5f21dc574226a06c76aae7060642a30eb74",
        "to": "0x26f89bf53d33cc44e33a1463a79bbb9c26458584",
        "gas": "0x600d8",
        "value": "0x16345785d8a0000",
        "input": "0x17b912080000000000000000000000000000000000000000000000000000000000000000000000000000000000000000000000000000000000000000000000000000e705",
        "nonce": "0x75",
        "chainId": "0xaa36a7"
      },
      "additionalContracts": [],
      "isFixedGasLimit": false
    }
  ],
  "receipts": [
    {
      "status": "0x1",
      "cumulativeGasUsed": "0x915e10",
      "logs": [
        {
          "address": "0xaf6d8b4577b61a3f389f96d9932156ea9632ccc8",
          "topics": [
            "0xddf252ad1be2c89b69c2b068fc378daa952ba7f163c4a11628f55a4df523b3ef",
            "0x0000000000000000000000000000000000000000000000000000000000000000",
            "0x000000000000000000000000af6d8b4577b61a3f389f96d9932156ea9632ccc8",
            "0x0000000000000000000000000000000000000000000000000000000000000000"
          ],
          "data": "0x",
          "blockHash": "0x0b6d02ced92fc770f789830250760fb36fea4140d0d31e10b5e1804ff8932fa6",
          "blockNumber": "0x66c52c",
          "transactionHash": "0xdb5aa8675fc85157340156d14cc8e48c94ccd1484d3e98669ad2c30d163fe072",
          "transactionIndex": "0x4f",
          "logIndex": "0x5e",
          "removed": false
        },
        {
          "address": "0xc690f4f8c07c25c8cd60455a5af4b48af22ecdfa",
          "topics": [
            "0x07fba7bba1191da7ee1155dcfa0030701c9c9a9cc34a93b991fc6fd0c9268d8f",
            "0x00000000000000000000000011d1e6fab5be8365a9e2b09b7fbce17eb2f85425",
            "0x000000000000000000000000af6d8b4577b61a3f389f96d9932156ea9632ccc8",
            "0x0000000000000000000000000000000000000000000000000000000000000000"
          ],
          "data": "0x00000000000000000000000026f89bf53d33cc44e33a1463a79bbb9c264585840000000000000000000000000000000000000000000000000000000000aa36a70000000000000000000000000000000000000000000000000000000000000000",
          "blockHash": "0x0b6d02ced92fc770f789830250760fb36fea4140d0d31e10b5e1804ff8932fa6",
          "blockNumber": "0x66c52c",
          "transactionHash": "0xdb5aa8675fc85157340156d14cc8e48c94ccd1484d3e98669ad2c30d163fe072",
          "transactionIndex": "0x4f",
          "logIndex": "0x5f",
          "removed": false
        },
        {
          "address": "0x26f89bf53d33cc44e33a1463a79bbb9c26458584",
          "topics": [
            "0x3cd5ec01b1ae7cfec6ca1863e2cd6aa25d6d1702825803ff2b7cc95010fffdc2",
            "0x000000000000000000000000af6d8b4577b61a3f389f96d9932156ea9632ccc8",
            "0x000000000000000000000000bc92755e56894cc1fb2054a56e5939bad1cd3541"
          ],
          "data": "0x",
          "blockHash": "0x0b6d02ced92fc770f789830250760fb36fea4140d0d31e10b5e1804ff8932fa6",
          "blockNumber": "0x66c52c",
          "transactionHash": "0xdb5aa8675fc85157340156d14cc8e48c94ccd1484d3e98669ad2c30d163fe072",
          "transactionIndex": "0x4f",
          "logIndex": "0x60",
          "removed": false
        },
        {
          "address": "0xaf6d8b4577b61a3f389f96d9932156ea9632ccc8",
          "topics": [
            "0xddf252ad1be2c89b69c2b068fc378daa952ba7f163c4a11628f55a4df523b3ef",
            "0x000000000000000000000000af6d8b4577b61a3f389f96d9932156ea9632ccc8",
            "0x000000000000000000000000000ef5f21dc574226a06c76aae7060642a30eb74",
            "0x0000000000000000000000000000000000000000000000000000000000000000"
          ],
          "data": "0x",
          "blockHash": "0x0b6d02ced92fc770f789830250760fb36fea4140d0d31e10b5e1804ff8932fa6",
          "blockNumber": "0x66c52c",
          "transactionHash": "0xdb5aa8675fc85157340156d14cc8e48c94ccd1484d3e98669ad2c30d163fe072",
          "transactionIndex": "0x4f",
          "logIndex": "0x61",
          "removed": false
        },
        {
          "address": "0xaf6d8b4577b61a3f389f96d9932156ea9632ccc8",
          "topics": [
            "0x019b61d9140f8784f4eed1e66569335630452af2d974ceb13d3e706c07867296",
            "0x000000000000000000000000000ef5f21dc574226a06c76aae7060642a30eb74",
            "0x0000000000000000000000000000000000000000000000000000000000000000",
            "0x00000000000000000000000026f89bf53d33cc44e33a1463a79bbb9c26458584"
          ],
          "data": "0x",
          "blockHash": "0x0b6d02ced92fc770f789830250760fb36fea4140d0d31e10b5e1804ff8932fa6",
          "blockNumber": "0x66c52c",
          "transactionHash": "0xdb5aa8675fc85157340156d14cc8e48c94ccd1484d3e98669ad2c30d163fe072",
          "transactionIndex": "0x4f",
          "logIndex": "0x62",
          "removed": false
        }
      ],
      "logsBloom": "0x000000000000001000800000000000000000000000000000000000000000000000000000000200000000000000000000000200000000000000000010000000024000040200001000004000080000000000000020400000008000000000000000200000000200000000000004000008000000000000000000000000100000000014000000000002004800000000200000000000000040000000000000000000000000000000000000000000080000000000000000000000000000000000000000000000020000000000000000000000000000000000008800040000000400a0000100001000000000000000000000000000000000000000000000002000008000",
      "type": "0x2",
      "transactionHash": "0xdb5aa8675fc85157340156d14cc8e48c94ccd1484d3e98669ad2c30d163fe072",
      "transactionIndex": "0x4f",
      "blockHash": "0x0b6d02ced92fc770f789830250760fb36fea4140d0d31e10b5e1804ff8932fa6",
      "blockNumber": "0x66c52c",
      "gasUsed": "0x3fe47",
      "effectiveGasPrice": "0x282a6faa1",
      "from": "0x000ef5f21dc574226a06c76aae7060642a30eb74",
      "to": "0xaf6d8b4577b61a3f389f96d9932156ea9632ccc8",
      "contractAddress": null
    },
    {
      "status": "0x1",
      "cumulativeGasUsed": "0x95b6b6",
      "logs": [
        {
          "address": "0xcc1ae8cf5d3904cef3360a9532b477529b177cce",
          "topics": [
            "0x61ed099e74a97a1d7f8bb0952a88ca8b7b8ebd00c126ea04671f92a81213318a"
          ],
          "data": "0x000000000000000000000000718b92b5cb0a5552039b593faf724d182a881eda00000000000000000000000000000000000000000000000000004e393421798a",
          "blockHash": "0x0b6d02ced92fc770f789830250760fb36fea4140d0d31e10b5e1804ff8932fa6",
          "blockNumber": "0x66c52c",
          "transactionHash": "0xbcaf36343c920e5b361554cc3d9b861cda58717b9f2e12cafaf7afab17697ae8",
          "transactionIndex": "0x50",
          "logIndex": "0x63",
          "removed": false
        },
        {
          "address": "0xcc1ae8cf5d3904cef3360a9532b477529b177cce",
          "topics": [
            "0x07ea52d82345d6e838192107d8fd7123d9c2ec8e916cd0aad13fd2b60db24644"
          ],
          "data": "0x000000000000000000000000000000000000000000000000000000000000006000000000000000000000000000000000000000000000000000000000000000a000000000000000000000000000000000000000000000000000000000000000c000000000000000000000000000000000000000000000000000000000000000010000000000000000000000008eebf8b423b73bfca51a1db4b7354aa0bfca919300000000000000000000000000000000000000000000000000000000000000000000000000000000000000000000000000000000000000000000000000000001000000000000000000000000000000000000000000000000000003e9429b4613",
          "blockHash": "0x0b6d02ced92fc770f789830250760fb36fea4140d0d31e10b5e1804ff8932fa6",
          "blockNumber": "0x66c52c",
          "transactionHash": "0xbcaf36343c920e5b361554cc3d9b861cda58717b9f2e12cafaf7afab17697ae8",
          "transactionIndex": "0x50",
          "logIndex": "0x64",
          "removed": false
        },
        {
          "address": "0x6edce65403992e310a62460808c4b910d972f10f",
          "topics": [
            "0x1ab700d4ced0c005b164c0f789fd09fcbb0156d4c2041b8a3bfbcd961cd1567f"
          ],
          "data": "0x00000000000000000000000000000000000000000000000000000000000000600000000000000000000000000000000000000000000000000000000000000180000000000000000000000000cc1ae8cf5d3904cef3360a9532b477529b177cce00000000000000000000000000000000000000000000000000000000000000f101000000000000000100009ce1000000000000000000000000af6d8b4577b61a3f389f96d9932156ea9632ccc800009d5f0000000000000000000000000944830916cecb637613c9fd0e8f6c21ccffb4efb28840a5c8c1af33207c6f22d627d498e309bcb7ed713109bfdde2b60d5d36080000000000000000000000009c080703256bdf9ea1b485ae72f13e31f74c558b000000000000000000000000000000000000000000000000000000000000e705000000000000000000000000af6d8b4577b61a3f389f96d9932156ea9632ccc800000000000000000000000000000000000000000000000000000000000000000000000000000000000000000000000000000000000000000000000000000000000000000000000000000000000016000301001101000000000000000000000000000f424000000000000000000000",
          "blockHash": "0x0b6d02ced92fc770f789830250760fb36fea4140d0d31e10b5e1804ff8932fa6",
          "blockNumber": "0x66c52c",
          "transactionHash": "0xbcaf36343c920e5b361554cc3d9b861cda58717b9f2e12cafaf7afab17697ae8",
          "transactionIndex": "0x50",
          "logIndex": "0x65",
          "removed": false
        },
        {
          "address": "0x26f89bf53d33cc44e33a1463a79bbb9c26458584",
          "topics": [
            "0x7e964ef64a625e3330d1f3c62e721a991668d33804582bb66393fb252fdf25fc",
            "0x00000000000000000000000003d05c487701bbee0b36ab31f7eb12fffbc9223e",
            "0x000000000000000000000000000000000000000000000000000000000000e705"
          ],
          "data": "0x",
          "blockHash": "0x0b6d02ced92fc770f789830250760fb36fea4140d0d31e10b5e1804ff8932fa6",
          "blockNumber": "0x66c52c",
          "transactionHash": "0xbcaf36343c920e5b361554cc3d9b861cda58717b9f2e12cafaf7afab17697ae8",
          "transactionIndex": "0x50",
          "logIndex": "0x66",
          "removed": false
        }
      ],
      "logsBloom": "0x00000000000000000000000000000000000000000000000000000000000100000000000000000000200000000001000000000000000000000000000000000000000000000000000000400000000040000000002000000000000000000000000000000000000000008a00000000000000000000400000000000000000000000000000000000000020000000080000000000000000000000000000000000200000000000008000000000100000000000000000040000400000000440000000000000001000000000000000000000000000000000080000000000000000800000000000040000000000000000000000002000000000000000000000080000008020",
      "type": "0x2",
      "transactionHash": "0xbcaf36343c920e5b361554cc3d9b861cda58717b9f2e12cafaf7afab17697ae8",
      "transactionIndex": "0x50",
      "blockHash": "0x0b6d02ced92fc770f789830250760fb36fea4140d0d31e10b5e1804ff8932fa6",
      "blockNumber": "0x66c52c",
      "gasUsed": "0x458a6",
      "effectiveGasPrice": "0x282a6faa1",
      "from": "0x000ef5f21dc574226a06c76aae7060642a30eb74",
      "to": "0x26f89bf53d33cc44e33a1463a79bbb9c26458584",
      "contractAddress": null
    }
  ],
  "libraries": [],
  "pending": [],
  "returns": {},
  "timestamp": 1726950496,
  "chain": 11155111,
  "commit": "0de68fb"
}