{
  "transactions": [
    {
      "hash": "0x31e5a0adfd99cedd67d25ea449eb69dd1891b6893eb83de86c3d07a1c9420060",
      "transactionType": "CREATE",
      "contractName": "MockERC20",
      "contractAddress": "0x95b55020f9ad8705f7d7d9a3827d664813473d96",
      "function": null,
      "arguments": [
        "BTC",
        "BTC"
      ],
      "transaction": {
        "from": "0x000ef5f21dc574226a06c76aae7060642a30eb74",
        "gas": "0xb813f",
        "value": "0x0",
        "input": "0x60806040523480156200001157600080fd5b5060405162000c3e38038062000c3e8339810160408190526200003491620002ba565b81816003620000448382620003b5565b506004620000538282620003b5565b50505062000075336c7e37be2022c0914b26800000006200007d60201b60201c565b5050620004a9565b6001600160a01b038216620000ad5760405163ec442f0560e01b8152600060048201526024015b60405180910390fd5b620000bb60008383620000bf565b5050565b6001600160a01b038316620000ee578060026000828254620000e2919062000481565b90915550620001629050565b6001600160a01b03831660009081526020819052604090205481811015620001435760405163391434e360e21b81526001600160a01b03851660048201526024810182905260448101839052606401620000a4565b6001600160a01b03841660009081526020819052604090209082900390555b6001600160a01b03821662000180576002805482900390556200019f565b6001600160a01b03821660009081526020819052604090208054820190555b816001600160a01b0316836001600160a01b03167fddf252ad1be2c89b69c2b068fc378daa952ba7f163c4a11628f55a4df523b3ef83604051620001e591815260200190565b60405180910390a3505050565b634e487b7160e01b600052604160045260246000fd5b600082601f8301126200021a57600080fd5b81516001600160401b0380821115620002375762000237620001f2565b604051601f8301601f19908116603f01168101908282118183101715620002625762000262620001f2565b81604052838152602092508660208588010111156200028057600080fd5b600091505b83821015620002a4578582018301518183018401529082019062000285565b6000602085830101528094505050505092915050565b60008060408385031215620002ce57600080fd5b82516001600160401b0380821115620002e657600080fd5b620002f48683870162000208565b935060208501519150808211156200030b57600080fd5b506200031a8582860162000208565b9150509250929050565b600181811c908216806200033957607f821691505b6020821081036200035a57634e487b7160e01b600052602260045260246000fd5b50919050565b601f821115620003b0576000816000526020600020601f850160051c810160208610156200038b5750805b601f850160051c820191505b81811015620003ac5782815560010162000397565b5050505b505050565b81516001600160401b03811115620003d157620003d1620001f2565b620003e981620003e2845462000324565b8462000360565b602080601f831160018114620004215760008415620004085750858301515b600019600386901b1c1916600185901b178555620003ac565b600085815260208120601f198616915b82811015620004525788860151825594840194600190910190840162000431565b5085821015620004715787850151600019600388901b60f8161c191681555b5050505050600190811b01905550565b80820180821115620004a357634e487b7160e01b600052601160045260246000fd5b92915050565b61078580620004b96000396000f3fe608060405234801561001057600080fd5b506004361061009e5760003560e01c806340c10f191161006657806340c10f191461011857806370a082311461012d57806395d89b4114610156578063a9059cbb1461015e578063dd62ed3e1461017157600080fd5b806306fdde03146100a3578063095ea7b3146100c157806318160ddd146100e457806323b872dd146100f6578063313ce56714610109575b600080fd5b6100ab6101aa565b6040516100b891906105ce565b60405180910390f35b6100d46100cf366004610639565b61023c565b60405190151581526020016100b8565b6002545b6040519081526020016100b8565b6100d4610104366004610663565b610256565b604051601281526020016100b8565b61012b610126366004610639565b61027a565b005b6100e861013b36600461069f565b6001600160a01b031660009081526020819052604090205490565b6100ab610288565b6100d461016c366004610639565b610297565b6100e861017f3660046106c1565b6001600160a01b03918216600090815260016020908152604080832093909416825291909152205490565b6060600380546101b9906106f4565b80601f01602080910402602001604051908101604052809291908181526020018280546101e5906106f4565b80156102325780601f1061020757610100808354040283529160200191610232565b820191906000526020600020905b81548152906001019060200180831161021557829003601f168201915b5050505050905090565b60003361024a8185856102a5565b60019150505b92915050565b6000336102648582856102b7565b61026f85858561033a565b506001949350505050565b6102848282610399565b5050565b6060600480546101b9906106f4565b60003361024a81858561033a565b6102b283838360016103cf565b505050565b6001600160a01b038381166000908152600160209081526040808320938616835292905220546000198114610334578181101561032557604051637dc7a0d960e11b81526001600160a01b038416600482015260248101829052604481018390526064015b60405180910390fd5b610334848484840360006103cf565b50505050565b6001600160a01b03831661036457604051634b637e8f60e11b81526000600482015260240161031c565b6001600160a01b03821661038e5760405163ec442f0560e01b81526000600482015260240161031c565b6102b28383836104a4565b6001600160a01b0382166103c35760405163ec442f0560e01b81526000600482015260240161031c565b610284600083836104a4565b6001600160a01b0384166103f95760405163e602df0560e01b81526000600482015260240161031c565b6001600160a01b03831661042357604051634a1406b160e11b81526000600482015260240161031c565b6001600160a01b038085166000908152600160209081526040808320938716835292905220829055801561033457826001600160a01b0316846001600160a01b03167f8c5be1e5ebec7d5bd14f71427d1e84f3dd0314c0f7b2291e5b200ac8c7c3b9258460405161049691815260200190565b60405180910390a350505050565b6001600160a01b0383166104cf5780600260008282546104c4919061072e565b909155506105419050565b6001600160a01b038316600090815260208190526040902054818110156105225760405163391434e360e21b81526001600160a01b0385166004820152602481018290526044810183905260640161031c565b6001600160a01b03841660009081526020819052604090209082900390555b6001600160a01b03821661055d5760028054829003905561057c565b6001600160a01b03821660009081526020819052604090208054820190555b816001600160a01b0316836001600160a01b03167fddf252ad1be2c89b69c2b068fc378daa952ba7f163c4a11628f55a4df523b3ef836040516105c191815260200190565b60405180910390a3505050565b60006020808352835180602085015260005b818110156105fc578581018301518582016040015282016105e0565b506000604082860101526040601f19601f8301168501019250505092915050565b80356001600160a01b038116811461063457600080fd5b919050565b6000806040838503121561064c57600080fd5b6106558361061d565b946020939093013593505050565b60008060006060848603121561067857600080fd5b6106818461061d565b925061068f6020850161061d565b9150604084013590509250925092565b6000602082840312156106b157600080fd5b6106ba8261061d565b9392505050565b600080604083850312156106d457600080fd5b6106dd8361061d565b91506106eb6020840161061d565b90509250929050565b600181811c9082168061070857607f821691505b60208210810361072857634e487b7160e01b600052602260045260246000fd5b50919050565b8082018082111561025057634e487b7160e01b600052601160045260246000fdfea2646970667358221220648da2b03071204221807fefe60f82512afc323d12a9452408416472f4be51f964736f6c63430008160033000000000000000000000000000000000000000000000000000000000000004000000000000000000000000000000000000000000000000000000000000000800000000000000000000000000000000000000000000000000000000000000003425443000000000000000000000000000000000000000000000000000000000000000000000000000000000000000000000000000000000000000000000000034254430000000000000000000000000000000000000000000000000000000000",
        "nonce": "0x76",
        "chainId": "0xaa36a7"
      },
      "additionalContracts": [],
      "isFixedGasLimit": false
    },
    {
      "hash": "0xf5e55e9913bdd59dd6c168a451ff75d8763ba58c29add4a7f7e69d1c974f80d6",
      "transactionType": "CREATE",
      "contractName": "MockERC20",
      "contractAddress": "0xeec8b97a759e14d22548ab36413eecffed82a5f8",
      "function": null,
      "arguments": [
        "ETH",
        "ETH"
      ],
      "transaction": {
        "from": "0x000ef5f21dc574226a06c76aae7060642a30eb74",
        "gas": "0xb813f",
        "value": "0x0",
        "input": "0x60806040523480156200001157600080fd5b5060405162000c3e38038062000c3e8339810160408190526200003491620002ba565b81816003620000448382620003b5565b506004620000538282620003b5565b50505062000075336c7e37be2022c0914b26800000006200007d60201b60201c565b5050620004a9565b6001600160a01b038216620000ad5760405163ec442f0560e01b8152600060048201526024015b60405180910390fd5b620000bb60008383620000bf565b5050565b6001600160a01b038316620000ee578060026000828254620000e2919062000481565b90915550620001629050565b6001600160a01b03831660009081526020819052604090205481811015620001435760405163391434e360e21b81526001600160a01b03851660048201526024810182905260448101839052606401620000a4565b6001600160a01b03841660009081526020819052604090209082900390555b6001600160a01b03821662000180576002805482900390556200019f565b6001600160a01b03821660009081526020819052604090208054820190555b816001600160a01b0316836001600160a01b03167fddf252ad1be2c89b69c2b068fc378daa952ba7f163c4a11628f55a4df523b3ef83604051620001e591815260200190565b60405180910390a3505050565b634e487b7160e01b600052604160045260246000fd5b600082601f8301126200021a57600080fd5b81516001600160401b0380821115620002375762000237620001f2565b604051601f8301601f19908116603f01168101908282118183101715620002625762000262620001f2565b81604052838152602092508660208588010111156200028057600080fd5b600091505b83821015620002a4578582018301518183018401529082019062000285565b6000602085830101528094505050505092915050565b60008060408385031215620002ce57600080fd5b82516001600160401b0380821115620002e657600080fd5b620002f48683870162000208565b935060208501519150808211156200030b57600080fd5b506200031a8582860162000208565b9150509250929050565b600181811c908216806200033957607f821691505b6020821081036200035a57634e487b7160e01b600052602260045260246000fd5b50919050565b601f821115620003b0576000816000526020600020601f850160051c810160208610156200038b5750805b601f850160051c820191505b81811015620003ac5782815560010162000397565b5050505b505050565b81516001600160401b03811115620003d157620003d1620001f2565b620003e981620003e2845462000324565b8462000360565b602080601f831160018114620004215760008415620004085750858301515b600019600386901b1c1916600185901b178555620003ac565b600085815260208120601f198616915b82811015620004525788860151825594840194600190910190840162000431565b5085821015620004715787850151600019600388901b60f8161c191681555b5050505050600190811b01905550565b80820180821115620004a357634e487b7160e01b600052601160045260246000fd5b92915050565b61078580620004b96000396000f3fe608060405234801561001057600080fd5b506004361061009e5760003560e01c806340c10f191161006657806340c10f191461011857806370a082311461012d57806395d89b4114610156578063a9059cbb1461015e578063dd62ed3e1461017157600080fd5b806306fdde03146100a3578063095ea7b3146100c157806318160ddd146100e457806323b872dd146100f6578063313ce56714610109575b600080fd5b6100ab6101aa565b6040516100b891906105ce565b60405180910390f35b6100d46100cf366004610639565b61023c565b60405190151581526020016100b8565b6002545b6040519081526020016100b8565b6100d4610104366004610663565b610256565b604051601281526020016100b8565b61012b610126366004610639565b61027a565b005b6100e861013b36600461069f565b6001600160a01b031660009081526020819052604090205490565b6100ab610288565b6100d461016c366004610639565b610297565b6100e861017f3660046106c1565b6001600160a01b03918216600090815260016020908152604080832093909416825291909152205490565b6060600380546101b9906106f4565b80601f01602080910402602001604051908101604052809291908181526020018280546101e5906106f4565b80156102325780601f1061020757610100808354040283529160200191610232565b820191906000526020600020905b81548152906001019060200180831161021557829003601f168201915b5050505050905090565b60003361024a8185856102a5565b60019150505b92915050565b6000336102648582856102b7565b61026f85858561033a565b506001949350505050565b6102848282610399565b5050565b6060600480546101b9906106f4565b60003361024a81858561033a565b6102b283838360016103cf565b505050565b6001600160a01b038381166000908152600160209081526040808320938616835292905220546000198114610334578181101561032557604051637dc7a0d960e11b81526001600160a01b038416600482015260248101829052604481018390526064015b60405180910390fd5b610334848484840360006103cf565b50505050565b6001600160a01b03831661036457604051634b637e8f60e11b81526000600482015260240161031c565b6001600160a01b03821661038e5760405163ec442f0560e01b81526000600482015260240161031c565b6102b28383836104a4565b6001600160a01b0382166103c35760405163ec442f0560e01b81526000600482015260240161031c565b610284600083836104a4565b6001600160a01b0384166103f95760405163e602df0560e01b81526000600482015260240161031c565b6001600160a01b03831661042357604051634a1406b160e11b81526000600482015260240161031c565b6001600160a01b038085166000908152600160209081526040808320938716835292905220829055801561033457826001600160a01b0316846001600160a01b03167f8c5be1e5ebec7d5bd14f71427d1e84f3dd0314c0f7b2291e5b200ac8c7c3b9258460405161049691815260200190565b60405180910390a350505050565b6001600160a01b0383166104cf5780600260008282546104c4919061072e565b909155506105419050565b6001600160a01b038316600090815260208190526040902054818110156105225760405163391434e360e21b81526001600160a01b0385166004820152602481018290526044810183905260640161031c565b6001600160a01b03841660009081526020819052604090209082900390555b6001600160a01b03821661055d5760028054829003905561057c565b6001600160a01b03821660009081526020819052604090208054820190555b816001600160a01b0316836001600160a01b03167fddf252ad1be2c89b69c2b068fc378daa952ba7f163c4a11628f55a4df523b3ef836040516105c191815260200190565b60405180910390a3505050565b60006020808352835180602085015260005b818110156105fc578581018301518582016040015282016105e0565b506000604082860101526040601f19601f8301168501019250505092915050565b80356001600160a01b038116811461063457600080fd5b919050565b6000806040838503121561064c57600080fd5b6106558361061d565b946020939093013593505050565b60008060006060848603121561067857600080fd5b6106818461061d565b925061068f6020850161061d565b9150604084013590509250925092565b6000602082840312156106b157600080fd5b6106ba8261061d565b9392505050565b600080604083850312156106d457600080fd5b6106dd8361061d565b91506106eb6020840161061d565b90509250929050565b600181811c9082168061070857607f821691505b60208210810361072857634e487b7160e01b600052602260045260246000fd5b50919050565b8082018082111561025057634e487b7160e01b600052601160045260246000fdfea2646970667358221220648da2b03071204221807fefe60f82512afc323d12a9452408416472f4be51f964736f6c63430008160033000000000000000000000000000000000000000000000000000000000000004000000000000000000000000000000000000000000000000000000000000000800000000000000000000000000000000000000000000000000000000000000003455448000000000000000000000000000000000000000000000000000000000000000000000000000000000000000000000000000000000000000000000000034554480000000000000000000000000000000000000000000000000000000000",
        "nonce": "0x77",
        "chainId": "0xaa36a7"
      },
      "additionalContracts": [],
      "isFixedGasLimit": false
    },
    {
      "hash": "0x370fc23016aeee48b5b69acc3f047a9a82c64da20516cde8b5c849ea1105441b",
      "transactionType": "CREATE",
      "contractName": "MockERC20",
      "contractAddress": "0x35698b8cfcfdec9ab873c4c18e5e4af1249dd775",
      "function": null,
      "arguments": [
        "LINK",
        "LINK"
      ],
      "transaction": {
        "from": "0x000ef5f21dc574226a06c76aae7060642a30eb74",
        "gas": "0xb815e",
        "value": "0x0",
        "input": "0x60806040523480156200001157600080fd5b5060405162000c3e38038062000c3e8339810160408190526200003491620002ba565b81816003620000448382620003b5565b506004620000538282620003b5565b50505062000075336c7e37be2022c0914b26800000006200007d60201b60201c565b5050620004a9565b6001600160a01b038216620000ad5760405163ec442f0560e01b8152600060048201526024015b60405180910390fd5b620000bb60008383620000bf565b5050565b6001600160a01b038316620000ee578060026000828254620000e2919062000481565b90915550620001629050565b6001600160a01b03831660009081526020819052604090205481811015620001435760405163391434e360e21b81526001600160a01b03851660048201526024810182905260448101839052606401620000a4565b6001600160a01b03841660009081526020819052604090209082900390555b6001600160a01b03821662000180576002805482900390556200019f565b6001600160a01b03821660009081526020819052604090208054820190555b816001600160a01b0316836001600160a01b03167fddf252ad1be2c89b69c2b068fc378daa952ba7f163c4a11628f55a4df523b3ef83604051620001e591815260200190565b60405180910390a3505050565b634e487b7160e01b600052604160045260246000fd5b600082601f8301126200021a57600080fd5b81516001600160401b0380821115620002375762000237620001f2565b604051601f8301601f19908116603f01168101908282118183101715620002625762000262620001f2565b81604052838152602092508660208588010111156200028057600080fd5b600091505b83821015620002a4578582018301518183018401529082019062000285565b6000602085830101528094505050505092915050565b60008060408385031215620002ce57600080fd5b82516001600160401b0380821115620002e657600080fd5b620002f48683870162000208565b935060208501519150808211156200030b57600080fd5b506200031a8582860162000208565b9150509250929050565b600181811c908216806200033957607f821691505b6020821081036200035a57634e487b7160e01b600052602260045260246000fd5b50919050565b601f821115620003b0576000816000526020600020601f850160051c810160208610156200038b5750805b601f850160051c820191505b81811015620003ac5782815560010162000397565b5050505b505050565b81516001600160401b03811115620003d157620003d1620001f2565b620003e981620003e2845462000324565b8462000360565b602080601f831160018114620004215760008415620004085750858301515b600019600386901b1c1916600185901b178555620003ac565b600085815260208120601f198616915b82811015620004525788860151825594840194600190910190840162000431565b5085821015620004715787850151600019600388901b60f8161c191681555b5050505050600190811b01905550565b80820180821115620004a357634e487b7160e01b600052601160045260246000fd5b92915050565b61078580620004b96000396000f3fe608060405234801561001057600080fd5b506004361061009e5760003560e01c806340c10f191161006657806340c10f191461011857806370a082311461012d57806395d89b4114610156578063a9059cbb1461015e578063dd62ed3e1461017157600080fd5b806306fdde03146100a3578063095ea7b3146100c157806318160ddd146100e457806323b872dd146100f6578063313ce56714610109575b600080fd5b6100ab6101aa565b6040516100b891906105ce565b60405180910390f35b6100d46100cf366004610639565b61023c565b60405190151581526020016100b8565b6002545b6040519081526020016100b8565b6100d4610104366004610663565b610256565b604051601281526020016100b8565b61012b610126366004610639565b61027a565b005b6100e861013b36600461069f565b6001600160a01b031660009081526020819052604090205490565b6100ab610288565b6100d461016c366004610639565b610297565b6100e861017f3660046106c1565b6001600160a01b03918216600090815260016020908152604080832093909416825291909152205490565b6060600380546101b9906106f4565b80601f01602080910402602001604051908101604052809291908181526020018280546101e5906106f4565b80156102325780601f1061020757610100808354040283529160200191610232565b820191906000526020600020905b81548152906001019060200180831161021557829003601f168201915b5050505050905090565b60003361024a8185856102a5565b60019150505b92915050565b6000336102648582856102b7565b61026f85858561033a565b506001949350505050565b6102848282610399565b5050565b6060600480546101b9906106f4565b60003361024a81858561033a565b6102b283838360016103cf565b505050565b6001600160a01b038381166000908152600160209081526040808320938616835292905220546000198114610334578181101561032557604051637dc7a0d960e11b81526001600160a01b038416600482015260248101829052604481018390526064015b60405180910390fd5b610334848484840360006103cf565b50505050565b6001600160a01b03831661036457604051634b637e8f60e11b81526000600482015260240161031c565b6001600160a01b03821661038e5760405163ec442f0560e01b81526000600482015260240161031c565b6102b28383836104a4565b6001600160a01b0382166103c35760405163ec442f0560e01b81526000600482015260240161031c565b610284600083836104a4565b6001600160a01b0384166103f95760405163e602df0560e01b81526000600482015260240161031c565b6001600160a01b03831661042357604051634a1406b160e11b81526000600482015260240161031c565b6001600160a01b038085166000908152600160209081526040808320938716835292905220829055801561033457826001600160a01b0316846001600160a01b03167f8c5be1e5ebec7d5bd14f71427d1e84f3dd0314c0f7b2291e5b200ac8c7c3b9258460405161049691815260200190565b60405180910390a350505050565b6001600160a01b0383166104cf5780600260008282546104c4919061072e565b909155506105419050565b6001600160a01b038316600090815260208190526040902054818110156105225760405163391434e360e21b81526001600160a01b0385166004820152602481018290526044810183905260640161031c565b6001600160a01b03841660009081526020819052604090209082900390555b6001600160a01b03821661055d5760028054829003905561057c565b6001600160a01b03821660009081526020819052604090208054820190555b816001600160a01b0316836001600160a01b03167fddf252ad1be2c89b69c2b068fc378daa952ba7f163c4a11628f55a4df523b3ef836040516105c191815260200190565b60405180910390a3505050565b60006020808352835180602085015260005b818110156105fc578581018301518582016040015282016105e0565b506000604082860101526040601f19601f8301168501019250505092915050565b80356001600160a01b038116811461063457600080fd5b919050565b6000806040838503121561064c57600080fd5b6106558361061d565b946020939093013593505050565b60008060006060848603121561067857600080fd5b6106818461061d565b925061068f6020850161061d565b9150604084013590509250925092565b6000602082840312156106b157600080fd5b6106ba8261061d565b9392505050565b600080604083850312156106d457600080fd5b6106dd8361061d565b91506106eb6020840161061d565b90509250929050565b600181811c9082168061070857607f821691505b60208210810361072857634e487b7160e01b600052602260045260246000fd5b50919050565b8082018082111561025057634e487b7160e01b600052601160045260246000fdfea2646970667358221220648da2b03071204221807fefe60f82512afc323d12a9452408416472f4be51f964736f6c634300081600330000000000000000000000000000000000000000000000000000000000000040000000000000000000000000000000000000000000000000000000000000008000000000000000000000000000000000000000000000000000000000000000044c494e4b0000000000000000000000000000000000000000000000000000000000000000000000000000000000000000000000000000000000000000000000044c494e4b00000000000000000000000000000000000000000000000000000000",
        "nonce": "0x78",
        "chainId": "0xaa36a7"
      },
      "additionalContracts": [],
      "isFixedGasLimit": false
    },
    {
      "hash": "0x0e0e52e45664ecb7f9bbc22c8f13f00be623e28b9107d2749189e8ef16d56f61",
      "transactionType": "CREATE",
      "contractName": "MockChainlinkDataFeed",
      "contractAddress": "0x705fdcdf03d95017a7a95e8ea29b675d7a6a35ef",
      "function": null,
      "arguments": [
        "100000000"
      ],
      "transaction": {
        "from": "0x000ef5f21dc574226a06c76aae7060642a30eb74",
        "gas": "0x39cee",
        "value": "0x0",
        "input": "0x608060405234801561001057600080fd5b5060405161024838038061024883398101604081905261002f91610037565b600055610050565b60006020828403121561004957600080fd5b5051919050565b6101e98061005f6000396000f3fe608060405234801561001057600080fd5b50600436106100625760003560e01c8063313ce5671461006757806354fd4d501461007b5780637284e4161461008c5780639a6fc8f5146100cb578063d9514f451461011c578063feaf968c14610125575b600080fd5b604051600881526020015b60405180910390f35b60005b604051908152602001610072565b604080518082018252601a81527f4d6f636b656420436861696e6c696e6b20446174612046656564000000000000602082015290516100729190610131565b6100e56100d9366004610180565b60008054919281908190565b6040805169ffffffffffffffffffff968716815260208101959095528401929092526060830152909116608082015260a001610072565b61007e60005481565b600080548180806100e5565b60006020808352835180602085015260005b8181101561015f57858101830151858201604001528201610143565b506000604082860101526040601f19601f8301168501019250505092915050565b60006020828403121561019257600080fd5b813569ffffffffffffffffffff811681146101ac57600080fd5b939250505056fea2646970667358221220b75842f3cc6bdfc738d4fc7eb59aa981b4037872d27e9953d720ed2d38d66f0e64736f6c634300081600330000000000000000000000000000000000000000000000000000000005f5e100",
        "nonce": "0x79",
        "chainId": "0xaa36a7"
      },
      "additionalContracts": [],
      "isFixedGasLimit": false
    },
    {
      "hash": "0xcdd29846aebff995bed06887f03609f35f4a55151a959544b45b50d925affd68",
      "transactionType": "CREATE",
      "contractName": "MockChainlinkDataFeed",
      "contractAddress": "0x2b449bad90e95df8e910c1031cdc763f07d96721",
      "function": null,
      "arguments": [
        "0"
      ],
      "transaction": {
        "from": "0x000ef5f21dc574226a06c76aae7060642a30eb74",
        "gas": "0x337b1",
        "value": "0x0",
        "input": "0x608060405234801561001057600080fd5b5060405161024838038061024883398101604081905261002f91610037565b600055610050565b60006020828403121561004957600080fd5b5051919050565b6101e98061005f6000396000f3fe608060405234801561001057600080fd5b50600436106100625760003560e01c8063313ce5671461006757806354fd4d501461007b5780637284e4161461008c5780639a6fc8f5146100cb578063d9514f451461011c578063feaf968c14610125575b600080fd5b604051600881526020015b60405180910390f35b60005b604051908152602001610072565b604080518082018252601a81527f4d6f636b656420436861696e6c696e6b20446174612046656564000000000000602082015290516100729190610131565b6100e56100d9366004610180565b60008054919281908190565b6040805169ffffffffffffffffffff968716815260208101959095528401929092526060830152909116608082015260a001610072565b61007e60005481565b600080548180806100e5565b60006020808352835180602085015260005b8181101561015f57858101830151858201604001528201610143565b506000604082860101526040601f19601f8301168501019250505092915050565b60006020828403121561019257600080fd5b813569ffffffffffffffffffff811681146101ac57600080fd5b939250505056fea2646970667358221220b75842f3cc6bdfc738d4fc7eb59aa981b4037872d27e9953d720ed2d38d66f0e64736f6c634300081600330000000000000000000000000000000000000000000000000000000000000000",
        "nonce": "0x7a",
        "chainId": "0xaa36a7"
      },
      "additionalContracts": [],
      "isFixedGasLimit": false
    },
    {
      "hash": "0xb775e6e4ac2c3536d4a727239340110ebc56a297e8f307c9856d2d705baba7a7",
      "transactionType": "CALL",
      "contractName": null,
      "contractAddress": "0x5140df8128a644c9517d18c58a00c8e8fb9677b5",
      "function": "setWhitelistedERC20Tokens(address[],address[],address[])",
      "arguments": [
        "[0x95B55020F9aD8705f7D7D9A3827d664813473d96, 0xeEC8b97A759E14D22548ab36413EecFfeD82A5f8, 0x35698b8cfCfdec9Ab873c4C18E5E4Af1249Dd775, 0x5B71e5EED1BFee7f85169eDDee6b48F1abd68431]",
        "[0x1b44F3514812d835EB1BDB0acB33d3fA3351Ee43, 0x694AA1769357215DE4FAC081bf1f309aDC325306, 0xc59E3633BAAC79493d908e63626716e204A45EdF, 0x705FdCDf03D95017a7a95E8EA29B675D7A6a35EF]",
        "[0xabfe1e28F54Ac40776DfCf2dF0874D37254D5F59, 0x8e604308BD61d975bc6aE7903747785Db7dE97e2, 0xd599cEF88Bbd27F1392A544bD0F343ec8893124C, 0x2B449BAD90e95Df8E910c1031CdC763f07d96721]"
      ],
      "transaction": {
        "from": "0x000ef5f21dc574226a06c76aae7060642a30eb74",
        "to": "0x5140df8128a644c9517d18c58a00c8e8fb9677b5",
        "gas": "0x8b88e",
        "value": "0x0",
        "input": "0x8376ff3d0000000000000000000000000000000000000000000000000000000000000060000000000000000000000000000000000000000000000000000000000000010000000000000000000000000000000000000000000000000000000000000001a0000000000000000000000000000000000000000000000000000000000000000400000000000000000000000095b55020f9ad8705f7d7d9a3827d664813473d96000000000000000000000000eec8b97a759e14d22548ab36413eecffed82a5f800000000000000000000000035698b8cfcfdec9ab873c4c18e5e4af1249dd7750000000000000000000000005b71e5eed1bfee7f85169eddee6b48f1abd6843100000000000000000000000000000000000000000000000000000000000000040000000000000000000000001b44f3514812d835eb1bdb0acb33d3fa3351ee43000000000000000000000000694aa1769357215de4fac081bf1f309adc325306000000000000000000000000c59e3633baac79493d908e63626716e204a45edf000000000000000000000000705fdcdf03d95017a7a95e8ea29b675d7a6a35ef0000000000000000000000000000000000000000000000000000000000000004000000000000000000000000abfe1e28f54ac40776dfcf2df0874d37254d5f590000000000000000000000008e604308bd61d975bc6ae7903747785db7de97e2000000000000000000000000d599cef88bbd27f1392a544bd0f343ec8893124c0000000000000000000000002b449bad90e95df8e910c1031cdc763f07d96721",
        "nonce": "0x7b",
        "chainId": "0xaa36a7"
      },
      "additionalContracts": [],
      "isFixedGasLimit": false
    },
    {
      "hash": "0x6e1ad480b0d7252a999655392208a9dbb2631e7138ec4a28a46ea5f8d02a21a8",
      "transactionType": "CALL",
      "contractName": null,
      "contractAddress": "0xc9a98c1697b7f46d2074bf8afee41f516cabdcd0",
      "function": "setSecuritySourceHubchain(address)",
      "arguments": [
        "0x5140dF8128A644c9517d18C58a00c8e8FB9677b5"
      ],
      "transaction": {
        "from": "0x000ef5f21dc574226a06c76aae7060642a30eb74",
        "to": "0xc9a98c1697b7f46d2074bf8afee41f516cabdcd0",
        "gas": "0xfef5",
        "value": "0x0",
        "input": "0xec3908ad0000000000000000000000005140df8128a644c9517d18c58a00c8e8fb9677b5",
        "nonce": "0x7c",
        "chainId": "0xaa36a7"
      },
      "additionalContracts": [],
      "isFixedGasLimit": false
    },
    {
      "hash": "0xf336c80b83284758c49c31c52ddd526005184ad7b297f11330847fefd9c440e9",
      "transactionType": "CALL",
      "contractName": null,
      "contractAddress": "0xc9a98c1697b7f46d2074bf8afee41f516cabdcd0",
      "function": "createVault()",
      "arguments": [],
      "transaction": {
        "from": "0x000ef5f21dc574226a06c76aae7060642a30eb74",
        "to": "0xc9a98c1697b7f46d2074bf8afee41f516cabdcd0",
        "gas": "0x5ef53",
        "value": "0x0",
        "input": "0x5d12928b",
        "nonce": "0x7d",
        "chainId": "0xaa36a7"
      },
      "additionalContracts": [],
      "isFixedGasLimit": false
    },
    {
      "hash": "0x9e63b7e3dbd5e5b4e278eb7b790ca842b172678b9cd814b7df387f96a0aa2d75",
      "transactionType": "CALL",
      "contractName": null,
      "contractAddress": "0x5b71e5eed1bfee7f85169eddee6b48f1abd68431",
      "function": "mint(address,uint256)",
      "arguments": [
        "0x000ef5F21dC574226A06C76AAE7060642A30eB74",
        "100000000000000000000"
      ],
      "transaction": {
        "from": "0x000ef5f21dc574226a06c76aae7060642a30eb74",
        "to": "0x5b71e5eed1bfee7f85169eddee6b48f1abd68431",
        "gas": "0xb8a2",
        "value": "0x0",
        "input": "0x40c10f19000000000000000000000000000ef5f21dc574226a06c76aae7060642a30eb740000000000000000000000000000000000000000000000056bc75e2d63100000",
        "nonce": "0x7e",
        "chainId": "0xaa36a7"
      },
      "additionalContracts": [],
      "isFixedGasLimit": false
    },
    {
      "hash": "0x372dddfef3e791cb76f92adbffa0a0c8151249afa9aa5e26a6b9ae219128354d",
      "transactionType": "CALL",
      "contractName": null,
      "contractAddress": "0x5b71e5eed1bfee7f85169eddee6b48f1abd68431",
      "function": "approve(address,uint256)",
      "arguments": [
        "0xb134eBF77dA8Da1c8CD75dc3C17B5524b7945cee",
        "100000000000000000000"
      ],
      "transaction": {
        "from": "0x000ef5f21dc574226a06c76aae7060642a30eb74",
        "to": "0x5b71e5eed1bfee7f85169eddee6b48f1abd68431",
        "gas": "0xfa41",
        "value": "0x0",
        "input": "0x095ea7b3000000000000000000000000b134ebf77da8da1c8cd75dc3c17b5524b7945cee0000000000000000000000000000000000000000000000056bc75e2d63100000",
        "nonce": "0x7f",
        "chainId": "0xaa36a7"
      },
      "additionalContracts": [],
      "isFixedGasLimit": false
    },
    {
      "hash": "0x5274e88f23bb893215e91e668fa73e47123599aec46fa4e513973a43e3173bd3",
      "transactionType": "CALL",
      "contractName": null,
      "contractAddress": "0xb134ebf77da8da1c8cd75dc3c17b5524b7945cee",
      "function": "deposit(uint256)",
      "arguments": [
        "50000000000000000000"
      ],
      "transaction": {
        "from": "0x000ef5f21dc574226a06c76aae7060642a30eb74",
        "to": "0xb134ebf77da8da1c8cd75dc3c17b5524b7945cee",
        "gas": "0x2858a",
        "value": "0x0",
        "input": "0xb6b55f25000000000000000000000000000000000000000000000002b5e3af16b1880000",
        "nonce": "0x80",
        "chainId": "0xaa36a7"
      },
      "additionalContracts": [],
      "isFixedGasLimit": false
    },
    {
      "hash": "0x89a90479ff5c4a02b3984ec878baf45245206114024b38ad4adabb1a6a94e728",
      "transactionType": "CALL",
      "contractName": "MockERC20",
      "contractAddress": "0x95b55020f9ad8705f7d7d9a3827d664813473d96",
      "function": "mint(address,uint256)",
      "arguments": [
        "0xb134eBF77dA8Da1c8CD75dc3C17B5524b7945cee",
        "1000000000000000000"
      ],
      "transaction": {
        "from": "0x000ef5f21dc574226a06c76aae7060642a30eb74",
        "to": "0x95b55020f9ad8705f7d7d9a3827d664813473d96",
        "gas": "0x12530",
        "value": "0x0",
        "input": "0x40c10f19000000000000000000000000b134ebf77da8da1c8cd75dc3c17b5524b7945cee0000000000000000000000000000000000000000000000000de0b6b3a7640000",
        "nonce": "0x81",
        "chainId": "0xaa36a7"
      },
      "additionalContracts": [],
      "isFixedGasLimit": false
    },
    {
      "hash": "0x0f571c1912ecda073ce8158b225288bd3d7e0d1c12df945eeee6189bea410c63",
      "transactionType": "CALL",
      "contractName": "MockERC20",
      "contractAddress": "0xeec8b97a759e14d22548ab36413eecffed82a5f8",
      "function": "mint(address,uint256)",
      "arguments": [
        "0xb134eBF77dA8Da1c8CD75dc3C17B5524b7945cee",
        "1000000000000000000"
      ],
      "transaction": {
        "from": "0x000ef5f21dc574226a06c76aae7060642a30eb74",
        "to": "0xeec8b97a759e14d22548ab36413eecffed82a5f8",
        "gas": "0x12530",
        "value": "0x0",
        "input": "0x40c10f19000000000000000000000000b134ebf77da8da1c8cd75dc3c17b5524b7945cee0000000000000000000000000000000000000000000000000de0b6b3a7640000",
        "nonce": "0x82",
        "chainId": "0xaa36a7"
      },
      "additionalContracts": [],
      "isFixedGasLimit": false
    },
    {
      "hash": "0x4be565ddfd3b7b7f87285932546a100d24b5c70828eac1383ad441105abee5df",
      "transactionType": "CALL",
      "contractName": "MockERC20",
      "contractAddress": "0x35698b8cfcfdec9ab873c4c18e5e4af1249dd775",
      "function": "mint(address,uint256)",
      "arguments": [
        "0xb134eBF77dA8Da1c8CD75dc3C17B5524b7945cee",
        "1000000000000000000"
      ],
      "transaction": {
        "from": "0x000ef5f21dc574226a06c76aae7060642a30eb74",
        "to": "0x35698b8cfcfdec9ab873c4c18e5e4af1249dd775",
        "gas": "0x12530",
        "value": "0x0",
        "input": "0x40c10f19000000000000000000000000b134ebf77da8da1c8cd75dc3c17b5524b7945cee0000000000000000000000000000000000000000000000000de0b6b3a7640000",
        "nonce": "0x83",
        "chainId": "0xaa36a7"
      },
      "additionalContracts": [],
      "isFixedGasLimit": false
    },
    {
      "hash": "0x4932648eb39a8eb509faf55ac853cea9cdf0c8e0dfabb6765fb344c2616716b4",
      "transactionType": "CALL",
      "contractName": null,
      "contractAddress": "0x5b71e5eed1bfee7f85169eddee6b48f1abd68431",
      "function": "mint(address,uint256)",
      "arguments": [
        "0xb134eBF77dA8Da1c8CD75dc3C17B5524b7945cee",
        "1000000000000000000"
      ],
      "transaction": {
        "from": "0x000ef5f21dc574226a06c76aae7060642a30eb74",
        "to": "0x5b71e5eed1bfee7f85169eddee6b48f1abd68431",
        "gas": "0xb8a2",
        "value": "0x0",
        "input": "0x40c10f19000000000000000000000000b134ebf77da8da1c8cd75dc3c17b5524b7945cee0000000000000000000000000000000000000000000000000de0b6b3a7640000",
        "nonce": "0x84",
        "chainId": "0xaa36a7"
      },
      "additionalContracts": [],
      "isFixedGasLimit": false
    },
    {
      "hash": "0x52a6ac7cce809acfd07d9192d7d2caef5259b8209cd65ff1d7b976eae61836f0",
      "transactionType": "CALL",
      "contractName": null,
      "contractAddress": "0xb134ebf77da8da1c8cd75dc3c17b5524b7945cee",
      "function": "evaluateTotalValue()",
      "arguments": [],
      "transaction": {
        "from": "0x000ef5f21dc574226a06c76aae7060642a30eb74",
        "to": "0xb134ebf77da8da1c8cd75dc3c17b5524b7945cee",
        "gas": "0x6cf6d",
        "value": "0x0",
        "input": "0xef4342c0",
        "nonce": "0x85",
        "chainId": "0xaa36a7"
      },
      "additionalContracts": [],
      "isFixedGasLimit": false
    }
  ],
  "receipts": [
    {
      "status": "0x1",
      "cumulativeGasUsed": "0x7cd4d7",
      "logs": [
        {
          "address": "0x95b55020f9ad8705f7d7d9a3827d664813473d96",
          "topics": [
            "0xddf252ad1be2c89b69c2b068fc378daa952ba7f163c4a11628f55a4df523b3ef",
            "0x0000000000000000000000000000000000000000000000000000000000000000",
            "0x000000000000000000000000000ef5f21dc574226a06c76aae7060642a30eb74"
          ],
          "data": "0x000000000000000000000000000000000000007e37be2022c0914b2680000000",
          "blockHash": "0x639ae90404e7f252b4a2138740674913a07e4180960184acfc76b8bdfd3f75cc",
          "blockNumber": "0x66c5cb",
          "transactionHash": "0x31e5a0adfd99cedd67d25ea449eb69dd1891b6893eb83de86c3d07a1c9420060",
          "transactionIndex": "0x38",
          "logIndex": "0x49",
          "removed": false
        }
      ],
      "logsBloom": "0x00000000000000000000000000000000000000000000000000000000000000000000000000020000000000000001000000000000000000000000000000000000000000000000000000000008000000000000000000000000000000000000000000000000020000000000000400000800000000000000000000000010000000000000000000000000000000000000000000000000000000000000000000000000000000000000000000000000000000000000000000000000000000000000000000000002000000000000000000000000000000004000000000000000040020040000000000000000000000000000000000000000000000000000000000000000",
      "type": "0x2",
      "transactionHash": "0x31e5a0adfd99cedd67d25ea449eb69dd1891b6893eb83de86c3d07a1c9420060",
      "transactionIndex": "0x38",
      "blockHash": "0x639ae90404e7f252b4a2138740674913a07e4180960184acfc76b8bdfd3f75cc",
      "blockNumber": "0x66c5cb",
      "gasUsed": "0x8da63",
      "effectiveGasPrice": "0x2476d8f9e",
      "from": "0x000ef5f21dc574226a06c76aae7060642a30eb74",
      "to": null,
      "contractAddress": "0x95b55020f9ad8705f7d7d9a3827d664813473d96"
    },
    {
      "status": "0x1",
      "cumulativeGasUsed": "0x85af3a",
      "logs": [
        {
          "address": "0xeec8b97a759e14d22548ab36413eecffed82a5f8",
          "topics": [
            "0xddf252ad1be2c89b69c2b068fc378daa952ba7f163c4a11628f55a4df523b3ef",
            "0x0000000000000000000000000000000000000000000000000000000000000000",
            "0x000000000000000000000000000ef5f21dc574226a06c76aae7060642a30eb74"
          ],
          "data": "0x000000000000000000000000000000000000007e37be2022c0914b2680000000",
          "blockHash": "0x639ae90404e7f252b4a2138740674913a07e4180960184acfc76b8bdfd3f75cc",
          "blockNumber": "0x66c5cb",
          "transactionHash": "0xf5e55e9913bdd59dd6c168a451ff75d8763ba58c29add4a7f7e69d1c974f80d6",
          "transactionIndex": "0x39",
          "logIndex": "0x4a",
          "removed": false
        }
      ],
      "logsBloom": "0x10000000000000000000000000000000000000000000000000000000000000000000000000020000000000000000000000000000000000000000000000000000080000000000000000000008000000000000000000000000000000000000000000000000020000000000000400000800000000000000000000000010000000000000000000000000000000000000000000000000000000000000000000000000000000000000000000000000000000000800000000000000000000000000000000000002000000000000000000000000000000000000000000000000040020000000000000000000000000000000000000000000000000000000000000000000",
      "type": "0x2",
      "transactionHash": "0xf5e55e9913bdd59dd6c168a451ff75d8763ba58c29add4a7f7e69d1c974f80d6",
      "transactionIndex": "0x39",
      "blockHash": "0x639ae90404e7f252b4a2138740674913a07e4180960184acfc76b8bdfd3f75cc",
      "blockNumber": "0x66c5cb",
      "gasUsed": "0x8da63",
      "effectiveGasPrice": "0x2476d8f9e",
      "from": "0x000ef5f21dc574226a06c76aae7060642a30eb74",
      "to": null,
      "contractAddress": "0xeec8b97a759e14d22548ab36413eecffed82a5f8"
    },
    {
      "status": "0x1",
      "cumulativeGasUsed": "0x8e89b5",
      "logs": [
        {
          "address": "0x35698b8cfcfdec9ab873c4c18e5e4af1249dd775",
          "topics": [
            "0xddf252ad1be2c89b69c2b068fc378daa952ba7f163c4a11628f55a4df523b3ef",
            "0x0000000000000000000000000000000000000000000000000000000000000000",
            "0x000000000000000000000000000ef5f21dc574226a06c76aae7060642a30eb74"
          ],
          "data": "0x000000000000000000000000000000000000007e37be2022c0914b2680000000",
          "blockHash": "0x639ae90404e7f252b4a2138740674913a07e4180960184acfc76b8bdfd3f75cc",
          "blockNumber": "0x66c5cb",
          "transactionHash": "0x370fc23016aeee48b5b69acc3f047a9a82c64da20516cde8b5c849ea1105441b",
          "transactionIndex": "0x3a",
          "logIndex": "0x4b",
          "removed": false
        }
      ],
      "logsBloom": "0x00000000000000000000000000000000000000000000000000000000000000000000000000020000000000000000000000000000000000000000000000000000000000000000000000000008000000000000000000000000000000000000000000000000020000000000000400000800000000000400000000000010000000000000000000000000000000000000000000000000040000000000000000000000000000000000000000000000000000000000000000000000000004000000000000000002000000000000000000000000000000000000000000000000040020000000000000000000000000000000000000000000000000000000000000000000",
      "type": "0x2",
      "transactionHash": "0x370fc23016aeee48b5b69acc3f047a9a82c64da20516cde8b5c849ea1105441b",
      "transactionIndex": "0x3a",
      "blockHash": "0x639ae90404e7f252b4a2138740674913a07e4180960184acfc76b8bdfd3f75cc",
      "blockNumber": "0x66c5cb",
      "gasUsed": "0x8da7b",
      "effectiveGasPrice": "0x2476d8f9e",
      "from": "0x000ef5f21dc574226a06c76aae7060642a30eb74",
      "to": null,
      "contractAddress": "0x35698b8cfcfdec9ab873c4c18e5e4af1249dd775"
    },
    {
      "status": "0x1",
      "cumulativeGasUsed": "0x915159",
      "logs": [],
      "logsBloom": "0x00000000000000000000000000000000000000000000000000000000000000000000000000000000000000000000000000000000000000000000000000000000000000000000000000000000000000000000000000000000000000000000000000000000000000000000000000000000000000000000000000000000000000000000000000000000000000000000000000000000000000000000000000000000000000000000000000000000000000000000000000000000000000000000000000000000000000000000000000000000000000000000000000000000000000000000000000000000000000000000000000000000000000000000000000000000",
      "type": "0x2",
      "transactionHash": "0x0e0e52e45664ecb7f9bbc22c8f13f00be623e28b9107d2749189e8ef16d56f61",
      "transactionIndex": "0x3b",
      "blockHash": "0x639ae90404e7f252b4a2138740674913a07e4180960184acfc76b8bdfd3f75cc",
      "blockNumber": "0x66c5cb",
      "gasUsed": "0x2c7a4",
      "effectiveGasPrice": "0x2476d8f9e",
      "from": "0x000ef5f21dc574226a06c76aae7060642a30eb74",
      "to": null,
      "contractAddress": "0x705fdcdf03d95017a7a95e8ea29b675d7a6a35ef"
    },
    {
      "status": "0x1",
      "cumulativeGasUsed": "0x93cb1d",
      "logs": [],
      "logsBloom": "0x00000000000000000000000000000000000000000000000000000000000000000000000000000000000000000000000000000000000000000000000000000000000000000000000000000000000000000000000000000000000000000000000000000000000000000000000000000000000000000000000000000000000000000000000000000000000000000000000000000000000000000000000000000000000000000000000000000000000000000000000000000000000000000000000000000000000000000000000000000000000000000000000000000000000000000000000000000000000000000000000000000000000000000000000000000000",
      "type": "0x2",
      "transactionHash": "0xcdd29846aebff995bed06887f03609f35f4a55151a959544b45b50d925affd68",
      "transactionIndex": "0x3c",
      "blockHash": "0x639ae90404e7f252b4a2138740674913a07e4180960184acfc76b8bdfd3f75cc",
      "blockNumber": "0x66c5cb",
      "gasUsed": "0x279c4",
      "effectiveGasPrice": "0x2476d8f9e",
      "from": "0x000ef5f21dc574226a06c76aae7060642a30eb74",
      "to": null,
      "contractAddress": "0x2b449bad90e95df8e910c1031cdc763f07d96721"
    },
    {
      "status": "0x1",
      "cumulativeGasUsed": "0x99c1a6",
      "logs": [],
      "logsBloom": "0x00000000000000000000000000000000000000000000000000000000000000000000000000000000000000000000000000000000000000000000000000000000000000000000000000000000000000000000000000000000000000000000000000000000000000000000000000000000000000000000000000000000000000000000000000000000000000000000000000000000000000000000000000000000000000000000000000000000000000000000000000000000000000000000000000000000000000000000000000000000000000000000000000000000000000000000000000000000000000000000000000000000000000000000000000000000",
      "type": "0x2",
      "transactionHash": "0xb775e6e4ac2c3536d4a727239340110ebc56a297e8f307c9856d2d705baba7a7",
      "transactionIndex": "0x3d",
      "blockHash": "0x639ae90404e7f252b4a2138740674913a07e4180960184acfc76b8bdfd3f75cc",
      "blockNumber": "0x66c5cb",
      "gasUsed": "0x5f689",
      "effectiveGasPrice": "0x2476d8f9e",
      "from": "0x000ef5f21dc574226a06c76aae7060642a30eb74",
      "to": "0x5140df8128a644c9517d18c58a00c8e8fb9677b5",
      "contractAddress": null
    },
    {
      "status": "0x1",
      "cumulativeGasUsed": "0x9a7a3c",
      "logs": [
        {
          "address": "0xc9a98c1697b7f46d2074bf8afee41f516cabdcd0",
          "topics": [
            "0xe26a15844775b7fea7542eded0982ae800b96bb4b3a22394a7fe3660452ccaf4",
            "0x0000000000000000000000005140df8128a644c9517d18c58a00c8e8fb9677b5"
          ],
          "data": "0x",
          "blockHash": "0x639ae90404e7f252b4a2138740674913a07e4180960184acfc76b8bdfd3f75cc",
          "blockNumber": "0x66c5cb",
          "transactionHash": "0x6e1ad480b0d7252a999655392208a9dbb2631e7138ec4a28a46ea5f8d02a21a8",
          "transactionIndex": "0x3e",
          "logIndex": "0x4c",
          "removed": false
        }
      ],
      "logsBloom": "0x00000000000000000000000000000000000000000000000000000000000000010000000000000000000000000000000000000000000800000000000000000000000000000200000000000000000000000000000000000000000080000000000000000000000000000000000000000000000000000000008000000000000000000000000200000000000000000000000000000000000000000000000000000000020000000000000000000000000000000000000000000000000000000000000000000008000000000000000000000000000000000000000000000000000000000000010000000000000000000000000000000000000000000000000000000000",
      "type": "0x2",
      "transactionHash": "0x6e1ad480b0d7252a999655392208a9dbb2631e7138ec4a28a46ea5f8d02a21a8",
      "transactionIndex": "0x3e",
      "blockHash": "0x639ae90404e7f252b4a2138740674913a07e4180960184acfc76b8bdfd3f75cc",
      "blockNumber": "0x66c5cb",
      "gasUsed": "0xb896",
      "effectiveGasPrice": "0x2476d8f9e",
      "from": "0x000ef5f21dc574226a06c76aae7060642a30eb74",
      "to": "0xc9a98c1697b7f46d2074bf8afee41f516cabdcd0",
      "contractAddress": null
    },
    {
      "status": "0x1",
      "cumulativeGasUsed": "0x9ec63f",
      "logs": [
        {
          "address": "0xc9a98c1697b7f46d2074bf8afee41f516cabdcd0",
          "topics": [
            "0xddf252ad1be2c89b69c2b068fc378daa952ba7f163c4a11628f55a4df523b3ef",
            "0x0000000000000000000000000000000000000000000000000000000000000000",
            "0x000000000000000000000000c9a98c1697b7f46d2074bf8afee41f516cabdcd0",
            "0x0000000000000000000000000000000000000000000000000000000000000000"
          ],
          "data": "0x",
          "blockHash": "0x639ae90404e7f252b4a2138740674913a07e4180960184acfc76b8bdfd3f75cc",
          "blockNumber": "0x66c5cb",
          "transactionHash": "0xf336c80b83284758c49c31c52ddd526005184ad7b297f11330847fefd9c440e9",
          "transactionIndex": "0x3f",
          "logIndex": "0x4d",
          "removed": false
        },
        {
          "address": "0x88c181cfd9bc44a0426e1083dea3ba35e63aefe7",
          "topics": [
            "0x07fba7bba1191da7ee1155dcfa0030701c9c9a9cc34a93b991fc6fd0c9268d8f",
            "0x0000000000000000000000004eea5e913438230895d1c141c3282a37f808e794",
            "0x000000000000000000000000c9a98c1697b7f46d2074bf8afee41f516cabdcd0",
            "0x0000000000000000000000000000000000000000000000000000000000000000"
          ],
          "data": "0x000000000000000000000000b134ebf77da8da1c8cd75dc3c17b5524b7945cee0000000000000000000000000000000000000000000000000000000000aa36a70000000000000000000000000000000000000000000000000000000000000000",
          "blockHash": "0x639ae90404e7f252b4a2138740674913a07e4180960184acfc76b8bdfd3f75cc",
          "blockNumber": "0x66c5cb",
          "transactionHash": "0xf336c80b83284758c49c31c52ddd526005184ad7b297f11330847fefd9c440e9",
          "transactionIndex": "0x3f",
          "logIndex": "0x4e",
          "removed": false
        },
        {
          "address": "0xb134ebf77da8da1c8cd75dc3c17b5524b7945cee",
          "topics": [
            "0x3cd5ec01b1ae7cfec6ca1863e2cd6aa25d6d1702825803ff2b7cc95010fffdc2",
            "0x000000000000000000000000c9a98c1697b7f46d2074bf8afee41f516cabdcd0",
            "0x0000000000000000000000005b71e5eed1bfee7f85169eddee6b48f1abd68431"
          ],
          "data": "0x",
          "blockHash": "0x639ae90404e7f252b4a2138740674913a07e4180960184acfc76b8bdfd3f75cc",
          "blockNumber": "0x66c5cb",
          "transactionHash": "0xf336c80b83284758c49c31c52ddd526005184ad7b297f11330847fefd9c440e9",
          "transactionIndex": "0x3f",
          "logIndex": "0x4f",
          "removed": false
        },
        {
          "address": "0xc9a98c1697b7f46d2074bf8afee41f516cabdcd0",
          "topics": [
            "0xddf252ad1be2c89b69c2b068fc378daa952ba7f163c4a11628f55a4df523b3ef",
            "0x000000000000000000000000c9a98c1697b7f46d2074bf8afee41f516cabdcd0",
            "0x000000000000000000000000000ef5f21dc574226a06c76aae7060642a30eb74",
            "0x0000000000000000000000000000000000000000000000000000000000000000"
          ],
          "data": "0x",
          "blockHash": "0x639ae90404e7f252b4a2138740674913a07e4180960184acfc76b8bdfd3f75cc",
          "blockNumber": "0x66c5cb",
          "transactionHash": "0xf336c80b83284758c49c31c52ddd526005184ad7b297f11330847fefd9c440e9",
          "transactionIndex": "0x3f",
          "logIndex": "0x50",
          "removed": false
        },
        {
          "address": "0xc9a98c1697b7f46d2074bf8afee41f516cabdcd0",
          "topics": [
            "0x019b61d9140f8784f4eed1e66569335630452af2d974ceb13d3e706c07867296",
            "0x000000000000000000000000000ef5f21dc574226a06c76aae7060642a30eb74",
            "0x0000000000000000000000000000000000000000000000000000000000000000",
            "0x000000000000000000000000b134ebf77da8da1c8cd75dc3c17b5524b7945cee"
          ],
          "data": "0x",
          "blockHash": "0x639ae90404e7f252b4a2138740674913a07e4180960184acfc76b8bdfd3f75cc",
          "blockNumber": "0x66c5cb",
          "transactionHash": "0xf336c80b83284758c49c31c52ddd526005184ad7b297f11330847fefd9c440e9",
          "transactionIndex": "0x3f",
          "logIndex": "0x51",
          "removed": false
        }
      ],
      "logsBloom": "0x00001000000000000004000000000000000000000000200000000000800000010000000000020000000a00000000000000000000000000000020000000000002000004000000000000000008000000000000000040000000800100000000000000000000021000001000000404000800000000002000000000000010000000000000000200000000000008000020000000000000000000000000000000000000000000000000000000000008000000000000000000000000000000000000000000000002000000000000000200001000000040000000000004000000040020000100011000000000000000000000000000000000002000000000002000000000",
      "type": "0x2",
      "transactionHash": "0xf336c80b83284758c49c31c52ddd526005184ad7b297f11330847fefd9c440e9",
      "transactionIndex": "0x3f",
      "blockHash": "0x639ae90404e7f252b4a2138740674913a07e4180960184acfc76b8bdfd3f75cc",
      "blockNumber": "0x66c5cb",
      "gasUsed": "0x44c03",
      "effectiveGasPrice": "0x2476d8f9e",
      "from": "0x000ef5f21dc574226a06c76aae7060642a30eb74",
      "to": "0xc9a98c1697b7f46d2074bf8afee41f516cabdcd0",
      "contractAddress": null
    },
    {
      "status": "0x1",
      "cumulativeGasUsed": "0x9f4bec",
      "logs": [
        {
          "address": "0x5b71e5eed1bfee7f85169eddee6b48f1abd68431",
          "topics": [
            "0xddf252ad1be2c89b69c2b068fc378daa952ba7f163c4a11628f55a4df523b3ef",
            "0x0000000000000000000000000000000000000000000000000000000000000000",
            "0x000000000000000000000000000ef5f21dc574226a06c76aae7060642a30eb74"
          ],
          "data": "0x0000000000000000000000000000000000000000000000056bc75e2d63100000",
          "blockHash": "0x639ae90404e7f252b4a2138740674913a07e4180960184acfc76b8bdfd3f75cc",
          "blockNumber": "0x66c5cb",
          "transactionHash": "0x9e63b7e3dbd5e5b4e278eb7b790ca842b172678b9cd814b7df387f96a0aa2d75",
          "transactionIndex": "0x40",
          "logIndex": "0x52",
          "removed": false
        }
      ],
      "logsBloom": "0x00000000000000000000000000000000000000000000000000000000000000000000000000020000000000000000000000000000004000000000000000000000000000000000000000000008000000000000000000000000000000000000000000000000020000000000000400000800000000000000000000000010000000000000000000000000000000000000000000000000000000000000000000000000000000000000000000000000000000000000000000000000000000000000000000000002000000000000000000000001000000000000100000000000040020000000000000000000000000000000000000000000000000000000000000000000",
      "type": "0x2",
      "transactionHash": "0x9e63b7e3dbd5e5b4e278eb7b790ca842b172678b9cd814b7df387f96a0aa2d75",
      "transactionIndex": "0x40",
      "blockHash": "0x639ae90404e7f252b4a2138740674913a07e4180960184acfc76b8bdfd3f75cc",
      "blockNumber": "0x66c5cb",
      "gasUsed": "0x85ad",
      "effectiveGasPrice": "0x2476d8f9e",
      "from": "0x000ef5f21dc574226a06c76aae7060642a30eb74",
      "to": "0x5b71e5eed1bfee7f85169eddee6b48f1abd68431",
      "contractAddress": null
    },
    {
      "status": "0x1",
      "cumulativeGasUsed": "0xa0011b",
      "logs": [
        {
          "address": "0x5b71e5eed1bfee7f85169eddee6b48f1abd68431",
          "topics": [
            "0x8c5be1e5ebec7d5bd14f71427d1e84f3dd0314c0f7b2291e5b200ac8c7c3b925",
            "0x000000000000000000000000000ef5f21dc574226a06c76aae7060642a30eb74",
            "0x000000000000000000000000b134ebf77da8da1c8cd75dc3c17b5524b7945cee"
          ],
          "data": "0x0000000000000000000000000000000000000000000000056bc75e2d63100000",
          "blockHash": "0x639ae90404e7f252b4a2138740674913a07e4180960184acfc76b8bdfd3f75cc",
          "blockNumber": "0x66c5cb",
          "transactionHash": "0x372dddfef3e791cb76f92adbffa0a0c8151249afa9aa5e26a6b9ae219128354d",
          "transactionIndex": "0x41",
          "logIndex": "0x53",
          "removed": false
        }
      ],
      "logsBloom": "0x00000000000000000000000000000000000000000000000000000000000000000000000000020000000000000000000000000000004000000020000000200000000000000000000000000000000000000000000000000000800000000000000000000000001000000000000400000000000000000000000000000000000000000000000000000000000000000000000000000000000000000000000000000000020000000000000000000000000000000000000000000000000000000000000000000000000000000000000000000001000000000000100000000000040000000010000000000000000000000000000000000000000000000000000000000000",
      "type": "0x2",
      "transactionHash": "0x372dddfef3e791cb76f92adbffa0a0c8151249afa9aa5e26a6b9ae219128354d",
      "transactionIndex": "0x41",
      "blockHash": "0x639ae90404e7f252b4a2138740674913a07e4180960184acfc76b8bdfd3f75cc",
      "blockNumber": "0x66c5cb",
      "gasUsed": "0xb52f",
      "effectiveGasPrice": "0x2476d8f9e",
      "from": "0x000ef5f21dc574226a06c76aae7060642a30eb74",
      "to": "0x5b71e5eed1bfee7f85169eddee6b48f1abd68431",
      "contractAddress": null
    },
    {
      "status": "0x1",
      "cumulativeGasUsed": "0xa1d478",
      "logs": [
        {
          "address": "0x5b71e5eed1bfee7f85169eddee6b48f1abd68431",
          "topics": [
            "0xddf252ad1be2c89b69c2b068fc378daa952ba7f163c4a11628f55a4df523b3ef",
            "0x000000000000000000000000000ef5f21dc574226a06c76aae7060642a30eb74",
            "0x000000000000000000000000b134ebf77da8da1c8cd75dc3c17b5524b7945cee"
          ],
          "data": "0x000000000000000000000000000000000000000000000002b5e3af16b1880000",
          "blockHash": "0x639ae90404e7f252b4a2138740674913a07e4180960184acfc76b8bdfd3f75cc",
          "blockNumber": "0x66c5cb",
          "transactionHash": "0x5274e88f23bb893215e91e668fa73e47123599aec46fa4e513973a43e3173bd3",
          "transactionIndex": "0x42",
          "logIndex": "0x54",
          "removed": false
        },
        {
          "address": "0xb134ebf77da8da1c8cd75dc3c17b5524b7945cee",
          "topics": [
            "0xddf252ad1be2c89b69c2b068fc378daa952ba7f163c4a11628f55a4df523b3ef",
            "0x0000000000000000000000000000000000000000000000000000000000000000",
            "0x000000000000000000000000000ef5f21dc574226a06c76aae7060642a30eb74"
          ],
          "data": "0x000000000000000000000000000000000000000000000002b5e3af16b1880000",
          "blockHash": "0x639ae90404e7f252b4a2138740674913a07e4180960184acfc76b8bdfd3f75cc",
          "blockNumber": "0x66c5cb",
          "transactionHash": "0x5274e88f23bb893215e91e668fa73e47123599aec46fa4e513973a43e3173bd3",
          "transactionIndex": "0x42",
          "logIndex": "0x55",
          "removed": false
        },
        {
          "address": "0xb134ebf77da8da1c8cd75dc3c17b5524b7945cee",
          "topics": [
            "0x90890809c654f11d6e72a28fa60149770a0d11ec6c92319d6ceb2bb0a4ea1a15",
            "0x000000000000000000000000000ef5f21dc574226a06c76aae7060642a30eb74"
          ],
          "data": "0x000000000000000000000000000000000000000000000002b5e3af16b1880000000000000000000000000000000000000000000000000002b5e3af16b1880000",
          "blockHash": "0x639ae90404e7f252b4a2138740674913a07e4180960184acfc76b8bdfd3f75cc",
          "blockNumber": "0x66c5cb",
          "transactionHash": "0x5274e88f23bb893215e91e668fa73e47123599aec46fa4e513973a43e3173bd3",
          "transactionIndex": "0x42",
          "logIndex": "0x56",
          "removed": false
        }
      ],
      "logsBloom": "0x00000000000000000000000000000000000000000400200000000000000000000000000000020000000000000000000008000000004000000020000000000000000000000000000000000008000000000000000000000000800000000000000000000000021000000000000400000800000000000000000000000010000000000000000000000000000008000000000000000000000000000000000000000000000000000000000000000000000000000000000000000000000000000000000000000002000000000000000000001001000000000000100000000000040020000000000000000000000000000000000000000000400000000000000000000000",
      "type": "0x2",
      "transactionHash": "0x5274e88f23bb893215e91e668fa73e47123599aec46fa4e513973a43e3173bd3",
      "transactionIndex": "0x42",
      "blockHash": "0x639ae90404e7f252b4a2138740674913a07e4180960184acfc76b8bdfd3f75cc",
      "blockNumber": "0x66c5cb",
      "gasUsed": "0x1d35d",
      "effectiveGasPrice": "0x2476d8f9e",
      "from": "0x000ef5f21dc574226a06c76aae7060642a30eb74",
      "to": "0xb134ebf77da8da1c8cd75dc3c17b5524b7945cee",
      "contractAddress": null
    },
    {
      "status": "0x1",
      "cumulativeGasUsed": "0xa29cf1",
      "logs": [
        {
          "address": "0x95b55020f9ad8705f7d7d9a3827d664813473d96",
          "topics": [
            "0xddf252ad1be2c89b69c2b068fc378daa952ba7f163c4a11628f55a4df523b3ef",
            "0x0000000000000000000000000000000000000000000000000000000000000000",
            "0x000000000000000000000000b134ebf77da8da1c8cd75dc3c17b5524b7945cee"
          ],
          "data": "0x0000000000000000000000000000000000000000000000000de0b6b3a7640000",
          "blockHash": "0x639ae90404e7f252b4a2138740674913a07e4180960184acfc76b8bdfd3f75cc",
          "blockNumber": "0x66c5cb",
          "transactionHash": "0x89a90479ff5c4a02b3984ec878baf45245206114024b38ad4adabb1a6a94e728",
          "transactionIndex": "0x43",
          "logIndex": "0x57",
          "removed": false
        }
      ],
      "logsBloom": "0x00000000000000000000000000000000000000000000000000000000000000000000000000000000000000000001000000000000000000000020000000000000000000000000000000000008000000000000000000000000800000000000000000000000021000000000000000000800000000000000000000000010000000000000000000000000000000000000000000000000000000000000000000000000000000000000000000000000000000000000000000000000000000000000000000000002000000000000000000000000000000004000000000000000000020040000000000000000000000000000000000000000000000000000000000000000",
      "type": "0x2",
      "transactionHash": "0x89a90479ff5c4a02b3984ec878baf45245206114024b38ad4adabb1a6a94e728",
      "transactionIndex": "0x43",
      "blockHash": "0x639ae90404e7f252b4a2138740674913a07e4180960184acfc76b8bdfd3f75cc",
      "blockNumber": "0x66c5cb",
      "gasUsed": "0xc879",
      "effectiveGasPrice": "0x2476d8f9e",
      "from": "0x000ef5f21dc574226a06c76aae7060642a30eb74",
      "to": "0x95b55020f9ad8705f7d7d9a3827d664813473d96",
      "contractAddress": null
    },
    {
      "status": "0x1",
      "cumulativeGasUsed": "0xa3656a",
      "logs": [
        {
          "address": "0xeec8b97a759e14d22548ab36413eecffed82a5f8",
          "topics": [
            "0xddf252ad1be2c89b69c2b068fc378daa952ba7f163c4a11628f55a4df523b3ef",
            "0x0000000000000000000000000000000000000000000000000000000000000000",
            "0x000000000000000000000000b134ebf77da8da1c8cd75dc3c17b5524b7945cee"
          ],
          "data": "0x0000000000000000000000000000000000000000000000000de0b6b3a7640000",
          "blockHash": "0x639ae90404e7f252b4a2138740674913a07e4180960184acfc76b8bdfd3f75cc",
          "blockNumber": "0x66c5cb",
          "transactionHash": "0x0f571c1912ecda073ce8158b225288bd3d7e0d1c12df945eeee6189bea410c63",
          "transactionIndex": "0x44",
          "logIndex": "0x58",
          "removed": false
        }
      ],
      "logsBloom": "0x10000000000000000000000000000000000000000000000000000000000000000000000000000000000000000000000000000000000000000020000000000000080000000000000000000008000000000000000000000000800000000000000000000000021000000000000000000800000000000000000000000010000000000000000000000000000000000000000000000000000000000000000000000000000000000000000000000000000000000800000000000000000000000000000000000002000000000000000000000000000000000000000000000000000020000000000000000000000000000000000000000000000000000000000000000000",
      "type": "0x2",
      "transactionHash": "0x0f571c1912ecda073ce8158b225288bd3d7e0d1c12df945eeee6189bea410c63",
      "transactionIndex": "0x44",
      "blockHash": "0x639ae90404e7f252b4a2138740674913a07e4180960184acfc76b8bdfd3f75cc",
      "blockNumber": "0x66c5cb",
      "gasUsed": "0xc879",
      "effectiveGasPrice": "0x2476d8f9e",
      "from": "0x000ef5f21dc574226a06c76aae7060642a30eb74",
      "to": "0xeec8b97a759e14d22548ab36413eecffed82a5f8",
      "contractAddress": null
    },
    {
      "status": "0x1",
      "cumulativeGasUsed": "0xa42de3",
      "logs": [
        {
          "address": "0x35698b8cfcfdec9ab873c4c18e5e4af1249dd775",
          "topics": [
            "0xddf252ad1be2c89b69c2b068fc378daa952ba7f163c4a11628f55a4df523b3ef",
            "0x0000000000000000000000000000000000000000000000000000000000000000",
            "0x000000000000000000000000b134ebf77da8da1c8cd75dc3c17b5524b7945cee"
          ],
          "data": "0x0000000000000000000000000000000000000000000000000de0b6b3a7640000",
          "blockHash": "0x639ae90404e7f252b4a2138740674913a07e4180960184acfc76b8bdfd3f75cc",
          "blockNumber": "0x66c5cb",
          "transactionHash": "0x4be565ddfd3b7b7f87285932546a100d24b5c70828eac1383ad441105abee5df",
          "transactionIndex": "0x45",
          "logIndex": "0x59",
          "removed": false
        }
      ],
      "logsBloom": "0x00000000000000000000000000000000000000000000000000000000000000000000000000000000000000000000000000000000000000000020000000000000000000000000000000000008000000000000000000000000800000000000000000000000021000000000000000000800000000000400000000000010000000000000000000000000000000000000000000000000040000000000000000000000000000000000000000000000000000000000000000000000000004000000000000000002000000000000000000000000000000000000000000000000000020000000000000000000000000000000000000000000000000000000000000000000",
      "type": "0x2",
      "transactionHash": "0x4be565ddfd3b7b7f87285932546a100d24b5c70828eac1383ad441105abee5df",
      "transactionIndex": "0x45",
      "blockHash": "0x639ae90404e7f252b4a2138740674913a07e4180960184acfc76b8bdfd3f75cc",
      "blockNumber": "0x66c5cb",
      "gasUsed": "0xc879",
      "effectiveGasPrice": "0x2476d8f9e",
      "from": "0x000ef5f21dc574226a06c76aae7060642a30eb74",
      "to": "0x35698b8cfcfdec9ab873c4c18e5e4af1249dd775",
      "contractAddress": null
    },
    {
      "status": "0x1",
      "cumulativeGasUsed": "0xa4b390",
      "logs": [
        {
          "address": "0x5b71e5eed1bfee7f85169eddee6b48f1abd68431",
          "topics": [
            "0xddf252ad1be2c89b69c2b068fc378daa952ba7f163c4a11628f55a4df523b3ef",
            "0x0000000000000000000000000000000000000000000000000000000000000000",
            "0x000000000000000000000000b134ebf77da8da1c8cd75dc3c17b5524b7945cee"
          ],
          "data": "0x0000000000000000000000000000000000000000000000000de0b6b3a7640000",
          "blockHash": "0x639ae90404e7f252b4a2138740674913a07e4180960184acfc76b8bdfd3f75cc",
          "blockNumber": "0x66c5cb",
          "transactionHash": "0x4932648eb39a8eb509faf55ac853cea9cdf0c8e0dfabb6765fb344c2616716b4",
          "transactionIndex": "0x46",
          "logIndex": "0x5a",
          "removed": false
        }
      ],
      "logsBloom": "0x00000000000000000000000000000000000000000000000000000000000000000000000000000000000000000000000000000000004000000020000000000000000000000000000000000008000000000000000000000000800000000000000000000000021000000000000000000800000000000000000000000010000000000000000000000000000000000000000000000000000000000000000000000000000000000000000000000000000000000000000000000000000000000000000000000002000000000000000000000001000000000000100000000000000020000000000000000000000000000000000000000000000000000000000000000000",
      "type": "0x2",
      "transactionHash": "0x4932648eb39a8eb509faf55ac853cea9cdf0c8e0dfabb6765fb344c2616716b4",
      "transactionIndex": "0x46",
      "blockHash": "0x639ae90404e7f252b4a2138740674913a07e4180960184acfc76b8bdfd3f75cc",
      "blockNumber": "0x66c5cb",
      "gasUsed": "0x85ad",
      "effectiveGasPrice": "0x2476d8f9e",
      "from": "0x000ef5f21dc574226a06c76aae7060642a30eb74",
      "to": "0x5b71e5eed1bfee7f85169eddee6b48f1abd68431",
      "contractAddress": null
    },
    {
      "status": "0x1",
      "cumulativeGasUsed": "0xa9a1c6",
      "logs": [],
      "logsBloom": "0x00000000000000000000000000000000000000000000000000000000000000000000000000000000000000000000000000000000000000000000000000000000000000000000000000000000000000000000000000000000000000000000000000000000000000000000000000000000000000000000000000000000000000000000000000000000000000000000000000000000000000000000000000000000000000000000000000000000000000000000000000000000000000000000000000000000000000000000000000000000000000000000000000000000000000000000000000000000000000000000000000000000000000000000000000000000",
      "type": "0x2",
      "transactionHash": "0x52a6ac7cce809acfd07d9192d7d2caef5259b8209cd65ff1d7b976eae61836f0",
      "transactionIndex": "0x47",
      "blockHash": "0x639ae90404e7f252b4a2138740674913a07e4180960184acfc76b8bdfd3f75cc",
      "blockNumber": "0x66c5cb",
      "gasUsed": "0x4ee36",
      "effectiveGasPrice": "0x2476d8f9e",
      "from": "0x000ef5f21dc574226a06c76aae7060642a30eb74",
      "to": "0xb134ebf77da8da1c8cd75dc3c17b5524b7945cee",
      "contractAddress": null
    }
  ],
  "libraries": [],
  "pending": [],
  "returns": {},
  "timestamp": 1726952799,
  "chain": 11155111,
  "commit": "4b648ea"
}